{
  "transactions": [
    {
      "hash": "0xc5accabcb923cfb05279ab77dea23feadce50af64e9821e08a3ac0792e59b3d8",
      "transactionType": "CALL",
      "contractName": null,
      "contractAddress": "0x7a8486ebdd87f762056c7f4c952a8c71784a50ec",
      "function": "finalizeStaking(uint256)",
      "arguments": [
        "1"
      ],
      "transaction": {
        "from": "0x63b52eff9fbcf7e32e27980e5e9e0b97f9637310",
        "to": "0x7a8486ebdd87f762056c7f4c952a8c71784a50ec",
        "gas": "0x33e13",
        "value": "0x0",
        "input": "0x06a6fb110000000000000000000000000000000000000000000000000000000000000001",
        "nonce": "0x59",
        "chainId": "0xaa36a7"
      },
      "additionalContracts": [],
      "isFixedGasLimit": false
    }
  ],
  "receipts": [
    {
      "status": "0x1",
      "cumulativeGasUsed": "0xfb8ebc",
      "logs": [
        {
          "address": "0x7a8486ebdd87f762056c7f4c952a8c71784a50ec",
          "topics": [
            "0xfb12755fb8336d83d7d0a192e0371e56b2388e8caa0c68beb7fb455d3e9cc855",
            "0x0000000000000000000000000000000000000000000000000000000000000001"
          ],
          "data": "0x0000000000000000000000000000000000000000000000000000000005f5e100",
          "blockHash": "0xc91bd515140a771825c2c08f9db8f1a5675c19fdc0fc1c31e4145160300f3fb5",
          "blockNumber": "0x7ab757",
          "transactionHash": "0xc5accabcb923cfb05279ab77dea23feadce50af64e9821e08a3ac0792e59b3d8",
          "transactionIndex": "0x5b",
          "logIndex": "0x81",
          "removed": false
        },
        {
          "address": "0x9ddfaca8183c41ad55329bdeed9f6a8d53168b1b",
          "topics": [
            "0xeb0e3652e0f44f417695e6e90f2f42c99b65cd7169074c5a654b16b9748c3a4e",
            "0x787d74caea10b2b357790d5b5247c2f63d1d91572a9846f780606e4d953677ae",
            "0x3b5f7184d67ae9fb88267914d97947c8f5ac38f7ce01665eaf08bb2da9363533",
            "0x0000000000000000000000007a8486ebdd87f762056c7f4c952a8c71784a50ec"
          ],
          "data": "0xa8ee2e5e582c16c09fbceba469c69dc54ee7f1156043cfdb834bbf1e66b679417f12e815c195729d42d35a0e671d7f5a0964b3f4dbacd8e3b89d418747a719ea00000000000000000000000000000000000000000000000000000000000000030000000000000000000000000000000000000000000000000000000000009c40000000000000000000000000000000000000000000000000000000000000000100000000000000000000000000000000000000000000000000000000000000c0000000000000000000000000000000000000000000000000000000000000002492fd1338000000000000000000000000000000000000000000000000000000000000000000000000000000000000000000000000000000000000000000000000",
          "blockHash": "0xc91bd515140a771825c2c08f9db8f1a5675c19fdc0fc1c31e4145160300f3fb5",
          "blockNumber": "0x7ab757",
          "transactionHash": "0xc5accabcb923cfb05279ab77dea23feadce50af64e9821e08a3ac0792e59b3d8",
          "transactionIndex": "0x5b",
          "logIndex": "0x82",
          "removed": false
        },
        {
          "address": "0x7a8486ebdd87f762056c7f4c952a8c71784a50ec",
          "topics": [
            "0x3e7fdeab84c01ce5308321caa0b460e1c4ec3c7099223d79634d9a71d99932e3",
            "0xa8ee2e5e582c16c09fbceba469c69dc54ee7f1156043cfdb834bbf1e66b67941",
            "0x0000000000000000000000007a8486ebdd87f762056c7f4c952a8c71784a50ec"
          ],
          "data": "0x",
          "blockHash": "0xc91bd515140a771825c2c08f9db8f1a5675c19fdc0fc1c31e4145160300f3fb5",
          "blockNumber": "0x7ab757",
          "transactionHash": "0xc5accabcb923cfb05279ab77dea23feadce50af64e9821e08a3ac0792e59b3d8",
          "transactionIndex": "0x5b",
          "logIndex": "0x83",
          "removed": false
        }
      ],
      "logsBloom": "0x00000080004000000000000000000200000000000020000001000000040000000002004200000000000400000000000000000000000000080000000000040000000000000000000000000000002000000000040000040000002002000000000008000000000000000000000000000000000000000000000000000000000000000008000000000000000204010000000000000000040000000000000000000000000000000000000220000000000000000000000000000000000000000000000000000000000000000000000000004000000000000000000000000000000040000000000000044000000000000000000000000000000000004000000000000000",
      "type": "0x2",
      "transactionHash": "0xc5accabcb923cfb05279ab77dea23feadce50af64e9821e08a3ac0792e59b3d8",
      "transactionIndex": "0x5b",
      "blockHash": "0xc91bd515140a771825c2c08f9db8f1a5675c19fdc0fc1c31e4145160300f3fb5",
      "blockNumber": "0x7ab757",
      "gasUsed": "0x258f6",
      "effectiveGasPrice": "0xb8d486ca",
      "from": "0x63b52eff9fbcf7e32e27980e5e9e0b97f9637310",
      "to": "0x7a8486ebdd87f762056c7f4c952a8c71784a50ec",
      "contractAddress": null
    }
  ],
  "libraries": [],
  "pending": [],
  "returns": {},
  "timestamp": 1743686760,
  "chain": 11155111,
  "commit": "d0f6370"
}