{
  "transactions": [
    {
      "hash": "0xd4fbaf0ca847e6e70662d0bbe5c06c592eaf7d3aac7646d3841f2c518c507c81",
      "transactionType": "CALL",
      "contractName": null,
      "contractAddress": "0x90538250aeebaa77aad7013409b2990b7af4c24b",
      "function": "finalizeStaking(uint256)",
      "arguments": [
        "2"
      ],
      "transaction": {
        "from": "0x63b52eff9fbcf7e32e27980e5e9e0b97f9637310",
        "to": "0x90538250aeebaa77aad7013409b2990b7af4c24b",
        "gas": "0x5c7cf",
        "value": "0x0",
        "input": "0x06a6fb110000000000000000000000000000000000000000000000000000000000000002",
        "nonce": "0x52",
        "chainId": "0xaa36a7"
      },
      "additionalContracts": [],
      "isFixedGasLimit": false
    }
  ],
  "receipts": [
    {
      "status": "0x1",
      "cumulativeGasUsed": "0x16f35d4",
      "logs": [
        {
          "address": "0x90538250aeebaa77aad7013409b2990b7af4c24b",
          "topics": [
            "0xfb12755fb8336d83d7d0a192e0371e56b2388e8caa0c68beb7fb455d3e9cc855",
            "0x0000000000000000000000000000000000000000000000000000000000000002"
          ],
          "data": "0x0000000000000000000000000000000000000000000000000000000005f5e100",
          "blockHash": "0xae5ee36de324439b861e1b2fb740fb4ac347b88541acb146a2555b65f62a75bb",
          "blockNumber": "0x7ab6d9",
          "transactionHash": "0xd4fbaf0ca847e6e70662d0bbe5c06c592eaf7d3aac7646d3841f2c518c507c81",
          "transactionIndex": "0x7b",
          "logIndex": "0x80",
          "removed": false
        },
        {
          "address": "0x9ddfaca8183c41ad55329bdeed9f6a8d53168b1b",
          "topics": [
            "0xeb0e3652e0f44f417695e6e90f2f42c99b65cd7169074c5a654b16b9748c3a4e",
            "0x787d74caea10b2b357790d5b5247c2f63d1d91572a9846f780606e4d953677ae",
            "0x3b5f7184d67ae9fb88267914d97947c8f5ac38f7ce01665eaf08bb2da9363533",
            "0x00000000000000000000000090538250aeebaa77aad7013409b2990b7af4c24b"
          ],
          "data": "0xdabcbfd9b66d93efec50221ffce1ed69761e9926f984c3b02b787aa5617ba2789e02dfb5d1512c3a5da8ebcaf2afe5fa91db8cd29a8e47bed4c6cabbb39adc4700000000000000000000000000000000000000000000000000000000000000030000000000000000000000000000000000000000000000000000000000009c40000000000000000000000000000000000000000000000000000000000000000100000000000000000000000000000000000000000000000000000000000000c0000000000000000000000000000000000000000000000000000000000000002492fd1338000000000000000000000000000000000000000000000000000000000000000000000000000000000000000000000000000000000000000000000000",
          "blockHash": "0xae5ee36de324439b861e1b2fb740fb4ac347b88541acb146a2555b65f62a75bb",
          "blockNumber": "0x7ab6d9",
          "transactionHash": "0xd4fbaf0ca847e6e70662d0bbe5c06c592eaf7d3aac7646d3841f2c518c507c81",
          "transactionIndex": "0x7b",
          "logIndex": "0x81",
          "removed": false
        },
        {
          "address": "0x90538250aeebaa77aad7013409b2990b7af4c24b",
          "topics": [
            "0x3e7fdeab84c01ce5308321caa0b460e1c4ec3c7099223d79634d9a71d99932e3",
            "0xdabcbfd9b66d93efec50221ffce1ed69761e9926f984c3b02b787aa5617ba278",
            "0x00000000000000000000000090538250aeebaa77aad7013409b2990b7af4c24b"
          ],
          "data": "0x",
          "blockHash": "0xae5ee36de324439b861e1b2fb740fb4ac347b88541acb146a2555b65f62a75bb",
          "blockNumber": "0x7ab6d9",
          "transactionHash": "0xd4fbaf0ca847e6e70662d0bbe5c06c592eaf7d3aac7646d3841f2c518c507c81",
          "transactionIndex": "0x7b",
          "logIndex": "0x82",
          "removed": false
        }
      ],
      "logsBloom": "0x04000080000000000000000000000200000000000020000001000000040000000000000200000000000000000000000000000000000000080000000000000000000000000000000000000010002000000000000000000000002002000000000008000000000000000000000000000000000000000000000000002000000000000088000000000002000200010000000000000000040000004000000000000000000000000000000020000100000000000000000000000000000000020000000000000000000000000000000000004008000000000000100000000000000000000000000000800000000000000000000000000000008000004000000000000000",
      "type": "0x2",
      "transactionHash": "0xd4fbaf0ca847e6e70662d0bbe5c06c592eaf7d3aac7646d3841f2c518c507c81",
      "transactionIndex": "0x7b",
      "blockHash": "0xae5ee36de324439b861e1b2fb740fb4ac347b88541acb146a2555b65f62a75bb",
      "blockNumber": "0x7ab6d9",
      "gasUsed": "0x42f5c",
      "effectiveGasPrice": "0x18d32275a",
      "from": "0x63b52eff9fbcf7e32e27980e5e9e0b97f9637310",
      "to": "0x90538250aeebaa77aad7013409b2990b7af4c24b",
      "contractAddress": null
    }
  ],
  "libraries": [],
  "pending": [],
  "returns": {},
  "timestamp": 1743685237,
  "chain": 11155111,
  "commit": "d0f6370"
}