{
  "transactions": [
    {
      "hash": "0x97d46d3b3725af611f9519f69e1ff3af42d23975c7d4abda7e2ebc24c7b5bea4",
      "transactionType": "CALL",
      "contractName": null,
      "contractAddress": "0x7a8486ebdd87f762056c7f4c952a8c71784a50ec",
      "function": "createLottery(uint256,uint256)",
      "arguments": [
        "180",
        "60"
      ],
      "transaction": {
        "from": "0x63b52eff9fbcf7e32e27980e5e9e0b97f9637310",
        "to": "0x7a8486ebdd87f762056c7f4c952a8c71784a50ec",
        "gas": "0x2a48d",
        "value": "0x0",
        "input": "0xfe35804e00000000000000000000000000000000000000000000000000000000000000b4000000000000000000000000000000000000000000000000000000000000003c",
        "nonce": "0x55",
        "chainId": "0xaa36a7"
      },
      "additionalContracts": [],
      "isFixedGasLimit": false
    },
    {
      "hash": "0xd01c487500805bcfd54956805d24faf654f1b32fc7da3ff07754a8bbb7ce6abc",
      "transactionType": "CALL",
      "contractName": null,
      "contractAddress": "0x94a9d9ac8a22534e3faca9f4e7f2e2cf85d5e4c8",
      "function": "approve(address,uint256)",
      "arguments": [
        "0x7a8486eBdD87F762056C7F4c952A8c71784A50EC",
        "100000000"
      ],
      "transaction": {
        "from": "0x63b52eff9fbcf7e32e27980e5e9e0b97f9637310",
        "to": "0x94a9d9ac8a22534e3faca9f4e7f2e2cf85d5e4c8",
        "gas": "0xf959",
        "value": "0x0",
        "input": "0x095ea7b30000000000000000000000007a8486ebdd87f762056c7f4c952a8c71784a50ec0000000000000000000000000000000000000000000000000000000005f5e100",
        "nonce": "0x56",
        "chainId": "0xaa36a7"
      },
      "additionalContracts": [],
      "isFixedGasLimit": false
    },
    {
      "hash": "0x51923d09a8fafa2a475cc19a276c93e5e3bc2ec8b60b762851b501f29859bfc7",
      "transactionType": "CALL",
      "contractName": null,
      "contractAddress": "0x7a8486ebdd87f762056c7f4c952a8c71784a50ec",
      "function": "stake(uint256,uint256)",
      "arguments": [
        "1",
        "100000000"
      ],
      "transaction": {
        "from": "0x63b52eff9fbcf7e32e27980e5e9e0b97f9637310",
        "to": "0x7a8486ebdd87f762056c7f4c952a8c71784a50ec",
        "gas": "0x35658",
        "value": "0x0",
        "input": "0x7b0472f000000000000000000000000000000000000000000000000000000000000000010000000000000000000000000000000000000000000000000000000005f5e100",
        "nonce": "0x57",
        "chainId": "0xaa36a7"
      },
      "additionalContracts": [],
      "isFixedGasLimit": false
    }
  ],
  "receipts": [
    {
      "status": "0x1",
      "cumulativeGasUsed": "0xfe3cd8",
      "logs": [
        {
          "address": "0x7a8486ebdd87f762056c7f4c952a8c71784a50ec",
          "topics": [
            "0xda4069c1dc91ac1ecb7d8ef4ee5b32895ee7575adef84beb9894cda2d125504a",
            "0x0000000000000000000000000000000000000000000000000000000000000001"
          ],
          "data": "0x0000000000000000000000000000000000000000000000000000000067ee8cc80000000000000000000000000000000000000000000000000000000067ee8c1400000000000000000000000063b52eff9fbcf7e32e27980e5e9e0b97f9637310",
          "blockHash": "0x8e4087224bc7e136dcf96c264be86d6c06b91535d9c791167d06ef40f1aac784",
          "blockNumber": "0x7ab74c",
          "transactionHash": "0x97d46d3b3725af611f9519f69e1ff3af42d23975c7d4abda7e2ebc24c7b5bea4",
          "transactionIndex": "0x9a",
          "logIndex": "0x125",
          "removed": false
        }
      ],
      "logsBloom": "0x00000000000000000000000000000000000000000000000000000000000000000002000000000000000000000000000000000000000000000000000000040000000000000000000000000000000000000000040000040000000000000000000000000000000000000000000000000000000000000000000000000000000000000000000000000000000000000000000000000000000000000000000000000000000000000000000000000000000000000000000000000000000000000000000000000000000000800002000000000000000000000000000000000000000040000000000000040000000000000000000000000000000000000000000000000000",
      "type": "0x2",
      "transactionHash": "0x97d46d3b3725af611f9519f69e1ff3af42d23975c7d4abda7e2ebc24c7b5bea4",
      "transactionIndex": "0x9a",
      "blockHash": "0x8e4087224bc7e136dcf96c264be86d6c06b91535d9c791167d06ef40f1aac784",
      "blockNumber": "0x7ab74c",
      "gasUsed": "0x1e9d0",
      "effectiveGasPrice": "0xa5da7d39",
      "from": "0x63b52eff9fbcf7e32e27980e5e9e0b97f9637310",
      "to": "0x7a8486ebdd87f762056c7f4c952a8c71784a50ec",
      "contractAddress": null
    },
    {
      "status": "0x1",
      "cumulativeGasUsed": "0xfef15f",
      "logs": [
        {
          "address": "0x94a9d9ac8a22534e3faca9f4e7f2e2cf85d5e4c8",
          "topics": [
            "0x8c5be1e5ebec7d5bd14f71427d1e84f3dd0314c0f7b2291e5b200ac8c7c3b925",
            "0x00000000000000000000000063b52eff9fbcf7e32e27980e5e9e0b97f9637310",
            "0x0000000000000000000000007a8486ebdd87f762056c7f4c952a8c71784a50ec"
          ],
          "data": "0x0000000000000000000000000000000000000000000000000000000005f5e100",
          "blockHash": "0x8e4087224bc7e136dcf96c264be86d6c06b91535d9c791167d06ef40f1aac784",
          "blockNumber": "0x7ab74c",
          "transactionHash": "0xd01c487500805bcfd54956805d24faf654f1b32fc7da3ff07754a8bbb7ce6abc",
          "transactionIndex": "0x9b",
          "logIndex": "0x126",
          "removed": false
        }
      ],
      "logsBloom": "0x00000000004000000000000000000100000000000000000000000000000000000000000000000000000400000000000000000000000000000000000000200000000000000000000000000000000000000000000000000000000008000000100000000000000000000000000000000000000000000000000000000000000000000000000000000000000004000000000000000000000000000000000000000000020000000100000000004000000000000000000000000000000000000000000000000000000000000000000000000000000000000000000020000000000000000010000000000000000000000000000000000000000000000000000000000000",
      "type": "0x2",
      "transactionHash": "0xd01c487500805bcfd54956805d24faf654f1b32fc7da3ff07754a8bbb7ce6abc",
      "transactionIndex": "0x9b",
      "blockHash": "0x8e4087224bc7e136dcf96c264be86d6c06b91535d9c791167d06ef40f1aac784",
      "blockNumber": "0x7ab74c",
      "gasUsed": "0xb487",
      "effectiveGasPrice": "0xa5da7d39",
      "from": "0x63b52eff9fbcf7e32e27980e5e9e0b97f9637310",
      "to": "0x94a9d9ac8a22534e3faca9f4e7f2e2cf85d5e4c8",
      "contractAddress": null
    },
    {
      "status": "0x1",
      "cumulativeGasUsed": "0x1015be7",
      "logs": [
        {
          "address": "0x94a9d9ac8a22534e3faca9f4e7f2e2cf85d5e4c8",
          "topics": [
            "0xddf252ad1be2c89b69c2b068fc378daa952ba7f163c4a11628f55a4df523b3ef",
            "0x00000000000000000000000063b52eff9fbcf7e32e27980e5e9e0b97f9637310",
            "0x0000000000000000000000007a8486ebdd87f762056c7f4c952a8c71784a50ec"
          ],
          "data": "0x0000000000000000000000000000000000000000000000000000000005f5e100",
          "blockHash": "0x8e4087224bc7e136dcf96c264be86d6c06b91535d9c791167d06ef40f1aac784",
          "blockNumber": "0x7ab74c",
          "transactionHash": "0x51923d09a8fafa2a475cc19a276c93e5e3bc2ec8b60b762851b501f29859bfc7",
          "transactionIndex": "0x9c",
          "logIndex": "0x127",
          "removed": false
        },
        {
          "address": "0x94a9d9ac8a22534e3faca9f4e7f2e2cf85d5e4c8",
          "topics": [
            "0x8c5be1e5ebec7d5bd14f71427d1e84f3dd0314c0f7b2291e5b200ac8c7c3b925",
            "0x00000000000000000000000063b52eff9fbcf7e32e27980e5e9e0b97f9637310",
            "0x0000000000000000000000007a8486ebdd87f762056c7f4c952a8c71784a50ec"
          ],
          "data": "0x0000000000000000000000000000000000000000000000000000000000000000",
          "blockHash": "0x8e4087224bc7e136dcf96c264be86d6c06b91535d9c791167d06ef40f1aac784",
          "blockNumber": "0x7ab74c",
          "transactionHash": "0x51923d09a8fafa2a475cc19a276c93e5e3bc2ec8b60b762851b501f29859bfc7",
          "transactionIndex": "0x9c",
          "logIndex": "0x128",
          "removed": false
        },
        {
          "address": "0x7a8486ebdd87f762056c7f4c952a8c71784a50ec",
          "topics": [
            "0xd29675c17a25076ca2247b79c732baf7e2fd471ed38067be604fd2608e228b53",
            "0x0000000000000000000000000000000000000000000000000000000000000001",
            "0x00000000000000000000000063b52eff9fbcf7e32e27980e5e9e0b97f9637310"
          ],
          "data": "0x0000000000000000000000000000000000000000000000000000000005f5e100",
          "blockHash": "0x8e4087224bc7e136dcf96c264be86d6c06b91535d9c791167d06ef40f1aac784",
          "blockNumber": "0x7ab74c",
          "transactionHash": "0x51923d09a8fafa2a475cc19a276c93e5e3bc2ec8b60b762851b501f29859bfc7",
          "transactionIndex": "0x9c",
          "logIndex": "0x129",
          "removed": false
        }
      ],
      "logsBloom": "0x00000000004000000000000000000100000000000000000000000000000000000002000000000000000400000000000000000000000000000000000000240000000000000000000000000008000000000000040000040000000008000000100000000000000000000000000000000000000000000000000000000010000000000000000000000000000004000000000000000400000000000000000800000000020000000100000000004000000000000000000000000000000000000000000000000002000000000000000000000000000000000000000020000000000040000010000000040000040000000000000000000000000000000000000000000000",
      "type": "0x2",
      "transactionHash": "0x51923d09a8fafa2a475cc19a276c93e5e3bc2ec8b60b762851b501f29859bfc7",
      "transactionIndex": "0x9c",
      "blockHash": "0x8e4087224bc7e136dcf96c264be86d6c06b91535d9c791167d06ef40f1aac784",
      "blockNumber": "0x7ab74c",
      "gasUsed": "0x26a88",
      "effectiveGasPrice": "0xa5da7d39",
      "from": "0x63b52eff9fbcf7e32e27980e5e9e0b97f9637310",
      "to": "0x7a8486ebdd87f762056c7f4c952a8c71784a50ec",
      "contractAddress": null
    }
  ],
  "libraries": [],
  "pending": [],
  "returns": {},
  "timestamp": 1743686617,
  "chain": 11155111,
  "commit": "d0f6370"
}