{
  "transactions": [
    {
      "hash": "0x8c7f4b0fd22181a1ce5bb3f41a23872e13b806c1009d2eb8f0b63870866d467d",
      "transactionType": "CALL",
      "contractName": null,
      "contractAddress": "0xf28b3b3e03eab27edc90aa338c6bbe7197cc7da9",
      "function": "createLottery(uint256,uint256)",
      "arguments": [
        "180",
        "60"
      ],
      "transaction": {
        "from": "0x63b52eff9fbcf7e32e27980e5e9e0b97f9637310",
        "to": "0xf28b3b3e03eab27edc90aa338c6bbe7197cc7da9",
        "gas": "0x2cdc8",
        "value": "0x0",
        "input": "0xfe35804e00000000000000000000000000000000000000000000000000000000000000b4000000000000000000000000000000000000000000000000000000000000003c",
        "nonce": "0x46",
        "chainId": "0xaa36a7"
      },
      "additionalContracts": [],
      "isFixedGasLimit": false
    },
    {
      "hash": "0x76a78ef27f28c6dd2f96211af0233fefd94fa146a2c28f8b2543abf9a952cdbe",
      "transactionType": "CALL",
      "contractName": null,
      "contractAddress": "0x94a9d9ac8a22534e3faca9f4e7f2e2cf85d5e4c8",
      "function": "approve(address,uint256)",
      "arguments": [
        "0xF28b3b3E03EaB27eDc90aA338c6BBE7197cC7dA9",
        "100000000"
      ],
      "transaction": {
        "from": "0x63b52eff9fbcf7e32e27980e5e9e0b97f9637310",
        "to": "0x94a9d9ac8a22534e3faca9f4e7f2e2cf85d5e4c8",
        "gas": "0xf959",
        "value": "0x0",
        "input": "0x095ea7b3000000000000000000000000f28b3b3e03eab27edc90aa338c6bbe7197cc7da90000000000000000000000000000000000000000000000000000000005f5e100",
        "nonce": "0x47",
        "chainId": "0xaa36a7"
      },
      "additionalContracts": [],
      "isFixedGasLimit": false
    },
    {
      "hash": "0xc64df3b4c313351f47aa2fdcf0dc927ae5659d74cc5fad54c7b83e995c378db7",
      "transactionType": "CALL",
      "contractName": null,
      "contractAddress": "0xf28b3b3e03eab27edc90aa338c6bbe7197cc7da9",
      "function": "stake(uint256,uint256)",
      "arguments": [
        "1",
        "100000000"
      ],
      "transaction": {
        "from": "0x63b52eff9fbcf7e32e27980e5e9e0b97f9637310",
        "to": "0xf28b3b3e03eab27edc90aa338c6bbe7197cc7da9",
        "gas": "0x3889b",
        "value": "0x0",
        "input": "0x7b0472f000000000000000000000000000000000000000000000000000000000000000010000000000000000000000000000000000000000000000000000000005f5e100",
        "nonce": "0x48",
        "chainId": "0xaa36a7"
      },
      "additionalContracts": [],
      "isFixedGasLimit": false
    }
  ],
  "receipts": [
    {
      "status": "0x1",
      "cumulativeGasUsed": "0x8e4771",
      "logs": [
        {
          "address": "0xf28b3b3e03eab27edc90aa338c6bbe7197cc7da9",
          "topics": [
            "0xda4069c1dc91ac1ecb7d8ef4ee5b32895ee7575adef84beb9894cda2d125504a",
            "0x0000000000000000000000000000000000000000000000000000000000000001"
          ],
          "data": "0x0000000000000000000000000000000000000000000000000000000067ee7b4c0000000000000000000000000000000000000000000000000000000067ee7a9800000000000000000000000063b52eff9fbcf7e32e27980e5e9e0b97f9637310",
          "blockHash": "0x1ed2a5cf524632af0c66fd78614183e5f9bf68c0a53dbcec158f6a2697d4ada1",
          "blockNumber": "0x7ab5d7",
          "transactionHash": "0x8c7f4b0fd22181a1ce5bb3f41a23872e13b806c1009d2eb8f0b63870866d467d",
          "transactionIndex": "0x47",
          "logIndex": "0x8e",
          "removed": false
        }
      ],
      "logsBloom": "0x00000000000000000000000000000000000000000000000000000000000000000000000000000000000000000000000000000000000000000000000000040000000000000000000000000000000000000000040000040000000000000000000000000000000000000000000000000000000000000000000000000000000000000000000004000000000000000000000000000000000000000000000000000000000000000000000000000000000000000000000000000000000000000000000100000000000000800002040000000000000000000000000000000000000040000000000000000000000000000000000000000000000000000000000000000000",
      "type": "0x2",
      "transactionHash": "0x8c7f4b0fd22181a1ce5bb3f41a23872e13b806c1009d2eb8f0b63870866d467d",
      "transactionIndex": "0x47",
      "blockHash": "0x1ed2a5cf524632af0c66fd78614183e5f9bf68c0a53dbcec158f6a2697d4ada1",
      "blockNumber": "0x7ab5d7",
      "gasUsed": "0x1eacb",
      "effectiveGasPrice": "0x55980428",
      "from": "0x63b52eff9fbcf7e32e27980e5e9e0b97f9637310",
      "to": "0xf28b3b3e03eab27edc90aa338c6bbe7197cc7da9",
      "contractAddress": null
    },
    {
      "status": "0x1",
      "cumulativeGasUsed": "0x8efbf8",
      "logs": [
        {
          "address": "0x94a9d9ac8a22534e3faca9f4e7f2e2cf85d5e4c8",
          "topics": [
            "0x8c5be1e5ebec7d5bd14f71427d1e84f3dd0314c0f7b2291e5b200ac8c7c3b925",
            "0x00000000000000000000000063b52eff9fbcf7e32e27980e5e9e0b97f9637310",
            "0x000000000000000000000000f28b3b3e03eab27edc90aa338c6bbe7197cc7da9"
          ],
          "data": "0x0000000000000000000000000000000000000000000000000000000005f5e100",
          "blockHash": "0x1ed2a5cf524632af0c66fd78614183e5f9bf68c0a53dbcec158f6a2697d4ada1",
          "blockNumber": "0x7ab5d7",
          "transactionHash": "0x76a78ef27f28c6dd2f96211af0233fefd94fa146a2c28f8b2543abf9a952cdbe",
          "transactionIndex": "0x48",
          "logIndex": "0x8f",
          "removed": false
        }
      ],
      "logsBloom": "0x00000000000000000000000000000100000001000000000000000000000000000000000000000000000000000000000000000000000000000000000000200000000000000000000000000000000000000000000000000000000008000000100000000000000000000000001000000000000000000000000000000000000000000000000000000000000000000000000000000000000000000000000000000000020000000100000000004000000000000000000000000000000000000000000000000010000000000000000000000000000000000000000020000000000000000010000000000000000000000000000000000000000000000000000000000000",
      "type": "0x2",
      "transactionHash": "0x76a78ef27f28c6dd2f96211af0233fefd94fa146a2c28f8b2543abf9a952cdbe",
      "transactionIndex": "0x48",
      "blockHash": "0x1ed2a5cf524632af0c66fd78614183e5f9bf68c0a53dbcec158f6a2697d4ada1",
      "blockNumber": "0x7ab5d7",
      "gasUsed": "0xb487",
      "effectiveGasPrice": "0x55980428",
      "from": "0x63b52eff9fbcf7e32e27980e5e9e0b97f9637310",
      "to": "0x94a9d9ac8a22534e3faca9f4e7f2e2cf85d5e4c8",
      "contractAddress": null
    },
    {
      "status": "0x1",
      "cumulativeGasUsed": "0x916681",
      "logs": [
        {
          "address": "0x94a9d9ac8a22534e3faca9f4e7f2e2cf85d5e4c8",
          "topics": [
            "0xddf252ad1be2c89b69c2b068fc378daa952ba7f163c4a11628f55a4df523b3ef",
            "0x00000000000000000000000063b52eff9fbcf7e32e27980e5e9e0b97f9637310",
            "0x000000000000000000000000f28b3b3e03eab27edc90aa338c6bbe7197cc7da9"
          ],
          "data": "0x0000000000000000000000000000000000000000000000000000000005f5e100",
          "blockHash": "0x1ed2a5cf524632af0c66fd78614183e5f9bf68c0a53dbcec158f6a2697d4ada1",
          "blockNumber": "0x7ab5d7",
          "transactionHash": "0xc64df3b4c313351f47aa2fdcf0dc927ae5659d74cc5fad54c7b83e995c378db7",
          "transactionIndex": "0x49",
          "logIndex": "0x90",
          "removed": false
        },
        {
          "address": "0x94a9d9ac8a22534e3faca9f4e7f2e2cf85d5e4c8",
          "topics": [
            "0x8c5be1e5ebec7d5bd14f71427d1e84f3dd0314c0f7b2291e5b200ac8c7c3b925",
            "0x00000000000000000000000063b52eff9fbcf7e32e27980e5e9e0b97f9637310",
            "0x000000000000000000000000f28b3b3e03eab27edc90aa338c6bbe7197cc7da9"
          ],
          "data": "0x0000000000000000000000000000000000000000000000000000000000000000",
          "blockHash": "0x1ed2a5cf524632af0c66fd78614183e5f9bf68c0a53dbcec158f6a2697d4ada1",
          "blockNumber": "0x7ab5d7",
          "transactionHash": "0xc64df3b4c313351f47aa2fdcf0dc927ae5659d74cc5fad54c7b83e995c378db7",
          "transactionIndex": "0x49",
          "logIndex": "0x91",
          "removed": false
        },
        {
          "address": "0xf28b3b3e03eab27edc90aa338c6bbe7197cc7da9",
          "topics": [
            "0xd29675c17a25076ca2247b79c732baf7e2fd471ed38067be604fd2608e228b53",
            "0x0000000000000000000000000000000000000000000000000000000000000001",
            "0x00000000000000000000000063b52eff9fbcf7e32e27980e5e9e0b97f9637310"
          ],
          "data": "0x0000000000000000000000000000000000000000000000000000000005f5e100",
          "blockHash": "0x1ed2a5cf524632af0c66fd78614183e5f9bf68c0a53dbcec158f6a2697d4ada1",
          "blockNumber": "0x7ab5d7",
          "transactionHash": "0xc64df3b4c313351f47aa2fdcf0dc927ae5659d74cc5fad54c7b83e995c378db7",
          "transactionIndex": "0x49",
          "logIndex": "0x92",
          "removed": false
        }
      ],
      "logsBloom": "0x00000000000000000000000000000100000001000000000000000000000000000000000000000000000000000000000000000000000000000000000000240000000000000000000000000008000000000000000000040000000008000000100000000000000000000000001000000000000000000000000000000010000000000000000004000000000000000000000000000400000000000000000800000000020000000100000000004000000000000000000000000000000000000000000100000012000000000000040000000000000000000000000020000000000040000010000000000000040000000000000000000000000000000000000000000000",
      "type": "0x2",
      "transactionHash": "0xc64df3b4c313351f47aa2fdcf0dc927ae5659d74cc5fad54c7b83e995c378db7",
      "transactionIndex": "0x49",
      "blockHash": "0x1ed2a5cf524632af0c66fd78614183e5f9bf68c0a53dbcec158f6a2697d4ada1",
      "blockNumber": "0x7ab5d7",
      "gasUsed": "0x26a89",
      "effectiveGasPrice": "0x55980428",
      "from": "0x63b52eff9fbcf7e32e27980e5e9e0b97f9637310",
      "to": "0xf28b3b3e03eab27edc90aa338c6bbe7197cc7da9",
      "contractAddress": null
    }
  ],
  "libraries": [],
  "pending": [],
  "returns": {},
  "timestamp": 1743682141,
  "chain": 11155111,
  "commit": "d0f6370"
}