{
  "transactions": [
    {
      "hash": "0xc84d8f84236fa265672a8176caebcad6418cb58a5b8b6a54c22b30257fc2c48e",
      "transactionType": "CALL",
      "contractName": null,
      "contractAddress": "0x3633d60cf44a0c36878b4cc6a2645a799f8ba8b4",
      "function": "createLottery(uint256,uint256)",
      "arguments": [
        "120",
        "60"
      ],
      "transaction": {
        "from": "0x63b52eff9fbcf7e32e27980e5e9e0b97f9637310",
        "to": "0x3633d60cf44a0c36878b4cc6a2645a799f8ba8b4",
        "gas": "0x2cdc8",
        "value": "0x0",
        "input": "0xfe35804e0000000000000000000000000000000000000000000000000000000000000078000000000000000000000000000000000000000000000000000000000000003c",
        "nonce": "0x3e",
        "chainId": "0xaa36a7"
      },
      "additionalContracts": [],
      "isFixedGasLimit": false
    },
    {
      "hash": "0x0f32fffb3a3bb422d4576721fcde3d90c029d7e1af6abdfda9557198bc24c901",
      "transactionType": "CALL",
      "contractName": null,
      "contractAddress": "0x1c7d4b196cb0c7b01d743fbc6116a902379c7238",
      "function": "approve(address,uint256)",
      "arguments": [
        "0x3633d60cF44A0C36878B4cC6A2645a799F8bA8b4",
        "1000000"
      ],
      "transaction": {
        "from": "0x63b52eff9fbcf7e32e27980e5e9e0b97f9637310",
        "to": "0x1c7d4b196cb0c7b01d743fbc6116a902379c7238",
        "gas": "0x12b1b",
        "value": "0x0",
        "input": "0x095ea7b30000000000000000000000003633d60cf44a0c36878b4cc6a2645a799f8ba8b400000000000000000000000000000000000000000000000000000000000f4240",
        "nonce": "0x3f",
        "chainId": "0xaa36a7"
      },
      "additionalContracts": [],
      "isFixedGasLimit": false
    },
    {
      "hash": "0x2303286fa55bf211d7e1fd160c7b311bf95658fac835eb6675137b839cb49928",
      "transactionType": "CALL",
      "contractName": null,
      "contractAddress": "0x3633d60cf44a0c36878b4cc6a2645a799f8ba8b4",
      "function": "stake(uint256,uint256)",
      "arguments": [
        "2",
        "1000000"
      ],
      "transaction": {
        "from": "0x63b52eff9fbcf7e32e27980e5e9e0b97f9637310",
        "to": "0x3633d60cf44a0c36878b4cc6a2645a799f8ba8b4",
        "gas": "0x32de0",
        "value": "0x0",
        "input": "0x7b0472f0000000000000000000000000000000000000000000000000000000000000000200000000000000000000000000000000000000000000000000000000000f4240",
        "nonce": "0x40",
        "chainId": "0xaa36a7"
      },
      "additionalContracts": [],
      "isFixedGasLimit": false
    }
  ],
  "receipts": [
    {
      "status": "0x1",
      "cumulativeGasUsed": "0xb29c27",
      "logs": [
        {
          "address": "0x3633d60cf44a0c36878b4cc6a2645a799f8ba8b4",
          "topics": [
            "0xda4069c1dc91ac1ecb7d8ef4ee5b32895ee7575adef84beb9894cda2d125504a",
            "0x0000000000000000000000000000000000000000000000000000000000000002"
          ],
          "data": "0x0000000000000000000000000000000000000000000000000000000067ee75dc0000000000000000000000000000000000000000000000000000000067ee756400000000000000000000000063b52eff9fbcf7e32e27980e5e9e0b97f9637310",
          "blockHash": "0x3c321c18e035c40522fdccd7d421a3d8b14899a22e3e713b64c72b244cb4e244",
          "blockNumber": "0x7ab568",
          "transactionHash": "0xc84d8f84236fa265672a8176caebcad6418cb58a5b8b6a54c22b30257fc2c48e",
          "transactionIndex": "0x65",
          "logIndex": "0xbb",
          "removed": false
        }
      ],
      "logsBloom": "0x04000000000000000000400000000000000000000000000000000000000000000000000000000000000000000000000000000000000000000000004000000000000000000000000000000000000000000000040000000000000000000000000000000000000000000000000000000000000000000000000000000000000000000000000000000000000000000000000000000000000020000000000000000000000000000000000000000100000000000000000000000000000000000000000000000000000000800002000000000000000000000000000000000000000000000000000000000000000000000000000000000000008000000000000000000000",
      "type": "0x2",
      "transactionHash": "0xc84d8f84236fa265672a8176caebcad6418cb58a5b8b6a54c22b30257fc2c48e",
      "transactionIndex": "0x65",
      "blockHash": "0x3c321c18e035c40522fdccd7d421a3d8b14899a22e3e713b64c72b244cb4e244",
      "blockNumber": "0x7ab568",
      "gasUsed": "0x1eacb",
      "effectiveGasPrice": "0x58f3ed3b",
      "from": "0x63b52eff9fbcf7e32e27980e5e9e0b97f9637310",
      "to": "0x3633d60cf44a0c36878b4cc6a2645a799f8ba8b4",
      "contractAddress": null
    },
    {
      "status": "0x1",
      "cumulativeGasUsed": "0xb374b4",
      "logs": [
        {
          "address": "0x1c7d4b196cb0c7b01d743fbc6116a902379c7238",
          "topics": [
            "0x8c5be1e5ebec7d5bd14f71427d1e84f3dd0314c0f7b2291e5b200ac8c7c3b925",
            "0x00000000000000000000000063b52eff9fbcf7e32e27980e5e9e0b97f9637310",
            "0x0000000000000000000000003633d60cf44a0c36878b4cc6a2645a799f8ba8b4"
          ],
          "data": "0x00000000000000000000000000000000000000000000000000000000000f4240",
          "blockHash": "0x3c321c18e035c40522fdccd7d421a3d8b14899a22e3e713b64c72b244cb4e244",
          "blockNumber": "0x7ab568",
          "transactionHash": "0x0f32fffb3a3bb422d4576721fcde3d90c029d7e1af6abdfda9557198bc24c901",
          "transactionIndex": "0x66",
          "logIndex": "0xbc",
          "removed": false
        }
      ],
      "logsBloom": "0x00000000000000000000000000000100000000000000000000000000000200000000000000000000000000000000000000000000000000000000000000200000000000000000000000000000000000000000000000000000000000000000100000000000000000000000000000000000000000000000000000000000040000000000000000100000000000000000000000000000000000000000000000000000020000000000000000000000000000000000000000000000000000000000000000000000000000000000000000000000000200000000000020000000000000000010000000000000008010000000000000000000000000000000000000000000",
      "type": "0x2",
      "transactionHash": "0x0f32fffb3a3bb422d4576721fcde3d90c029d7e1af6abdfda9557198bc24c901",
      "transactionIndex": "0x66",
      "blockHash": "0x3c321c18e035c40522fdccd7d421a3d8b14899a22e3e713b64c72b244cb4e244",
      "blockNumber": "0x7ab568",
      "gasUsed": "0xd88d",
      "effectiveGasPrice": "0x58f3ed3b",
      "from": "0x63b52eff9fbcf7e32e27980e5e9e0b97f9637310",
      "to": "0x1c7d4b196cb0c7b01d743fbc6116a902379c7238",
      "contractAddress": null
    },
    {
      "status": "0x1",
      "cumulativeGasUsed": "0xb5c1f0",
      "logs": [
        {
          "address": "0x1c7d4b196cb0c7b01d743fbc6116a902379c7238",
          "topics": [
            "0xddf252ad1be2c89b69c2b068fc378daa952ba7f163c4a11628f55a4df523b3ef",
            "0x00000000000000000000000063b52eff9fbcf7e32e27980e5e9e0b97f9637310",
            "0x0000000000000000000000003633d60cf44a0c36878b4cc6a2645a799f8ba8b4"
          ],
          "data": "0x00000000000000000000000000000000000000000000000000000000000f4240",
          "blockHash": "0x3c321c18e035c40522fdccd7d421a3d8b14899a22e3e713b64c72b244cb4e244",
          "blockNumber": "0x7ab568",
          "transactionHash": "0x2303286fa55bf211d7e1fd160c7b311bf95658fac835eb6675137b839cb49928",
          "transactionIndex": "0x67",
          "logIndex": "0xbd",
          "removed": false
        },
        {
          "address": "0x3633d60cf44a0c36878b4cc6a2645a799f8ba8b4",
          "topics": [
            "0xd29675c17a25076ca2247b79c732baf7e2fd471ed38067be604fd2608e228b53",
            "0x0000000000000000000000000000000000000000000000000000000000000002",
            "0x00000000000000000000000063b52eff9fbcf7e32e27980e5e9e0b97f9637310"
          ],
          "data": "0x00000000000000000000000000000000000000000000000000000000000f4240",
          "blockHash": "0x3c321c18e035c40522fdccd7d421a3d8b14899a22e3e713b64c72b244cb4e244",
          "blockNumber": "0x7ab568",
          "transactionHash": "0x2303286fa55bf211d7e1fd160c7b311bf95658fac835eb6675137b839cb49928",
          "transactionIndex": "0x67",
          "logIndex": "0xbe",
          "removed": false
        }
      ],
      "logsBloom": "0x04000000000000000000400000000100000000000000000000000000000200000000000000000000000000000000000000000000000000000000004000000000000000000000000000000008000000000000000000000000000000000000100000000000000000000000000000000000000000000000000000000010040000000000000000100000000000000000000000000400000020000000000800000000000000000000000000000100000000000000000000000000000000000000000000000002000000000000000000000000000200000000000020000000000000000000000000000000048010000000000000000000008000000000000000000000",
      "type": "0x2",
      "transactionHash": "0x2303286fa55bf211d7e1fd160c7b311bf95658fac835eb6675137b839cb49928",
      "transactionIndex": "0x67",
      "blockHash": "0x3c321c18e035c40522fdccd7d421a3d8b14899a22e3e713b64c72b244cb4e244",
      "blockNumber": "0x7ab568",
      "gasUsed": "0x24d3c",
      "effectiveGasPrice": "0x58f3ed3b",
      "from": "0x63b52eff9fbcf7e32e27980e5e9e0b97f9637310",
      "to": "0x3633d60cf44a0c36878b4cc6a2645a799f8ba8b4",
      "contractAddress": null
    }
  ],
  "libraries": [],
  "pending": [],
  "returns": {},
  "timestamp": 1743680809,
  "chain": 11155111,
  "commit": "d0f6370"
}