{
  "transactions": [
    {
      "hash": "0xb8d08914ac01621ff233f359e33cb6e004328e24c87eaa9052be80d480295ea1",
      "transactionType": "CALL",
      "contractName": null,
      "contractAddress": "0x3633d60cf44a0c36878b4cc6a2645a799f8ba8b4",
      "function": "createLottery(uint256,uint256)",
      "arguments": [
        "172800",
        "86400"
      ],
      "transaction": {
        "from": "0x63b52eff9fbcf7e32e27980e5e9e0b97f9637310",
        "to": "0x3633d60cf44a0c36878b4cc6a2645a799f8ba8b4",
        "gas": "0x2a618",
        "value": "0x0",
        "input": "0xfe35804e000000000000000000000000000000000000000000000000000000000002a3000000000000000000000000000000000000000000000000000000000000015180",
        "nonce": "0x3a",
        "chainId": "0xaa36a7"
      },
      "additionalContracts": [],
      "isFixedGasLimit": false
    },
    {
      "hash": "0xf2b2c4d4cc42d6e1aefd066527299ac65d6f4c5b538aa97170dff8a2e1a85ff4",
      "transactionType": "CALL",
      "contractName": null,
      "contractAddress": "0x1c7d4b196cb0c7b01d743fbc6116a902379c7238",
      "function": "approve(address,uint256)",
      "arguments": [
        "0x3633d60cF44A0C36878B4cC6A2645a799F8bA8b4",
        "1000000"
      ],
      "transaction": {
        "from": "0x63b52eff9fbcf7e32e27980e5e9e0b97f9637310",
        "to": "0x1c7d4b196cb0c7b01d743fbc6116a902379c7238",
        "gas": "0x12b1b",
        "value": "0x0",
        "input": "0x095ea7b30000000000000000000000003633d60cf44a0c36878b4cc6a2645a799f8ba8b400000000000000000000000000000000000000000000000000000000000f4240",
        "nonce": "0x3b",
        "chainId": "0xaa36a7"
      },
      "additionalContracts": [],
      "isFixedGasLimit": false
    },
    {
      "hash": "0xc5eb9cd788fc9030c64378a746ab393c241fc918f3f18bbad8bd08bd72b893c7",
      "transactionType": "CALL",
      "contractName": null,
      "contractAddress": "0x3633d60cf44a0c36878b4cc6a2645a799f8ba8b4",
      "function": "stake(uint256,uint256)",
      "arguments": [
        "1",
        "1000000"
      ],
      "transaction": {
        "from": "0x63b52eff9fbcf7e32e27980e5e9e0b97f9637310",
        "to": "0x3633d60cf44a0c36878b4cc6a2645a799f8ba8b4",
        "gas": "0x38a24",
        "value": "0x0",
        "input": "0x7b0472f0000000000000000000000000000000000000000000000000000000000000000100000000000000000000000000000000000000000000000000000000000f4240",
        "nonce": "0x3c",
        "chainId": "0xaa36a7"
      },
      "additionalContracts": [],
      "isFixedGasLimit": false
    }
  ],
  "receipts": [
    {
      "status": "0x1",
      "cumulativeGasUsed": "0x9c2292",
      "logs": [
        {
          "address": "0x3633d60cf44a0c36878b4cc6a2645a799f8ba8b4",
          "topics": [
            "0xda4069c1dc91ac1ecb7d8ef4ee5b32895ee7575adef84beb9894cda2d125504a",
            "0x0000000000000000000000000000000000000000000000000000000000000001"
          ],
          "data": "0x0000000000000000000000000000000000000000000000000000000067f268b80000000000000000000000000000000000000000000000000000000067efc5b800000000000000000000000063b52eff9fbcf7e32e27980e5e9e0b97f9637310",
          "blockHash": "0xfb7db163122a867f33107fa841787800d8192e1aa9f8cc4d81a4efd41d9102e1",
          "blockNumber": "0x7ab554",
          "transactionHash": "0xb8d08914ac01621ff233f359e33cb6e004328e24c87eaa9052be80d480295ea1",
          "transactionIndex": "0x5c",
          "logIndex": "0xab",
          "removed": false
        }
      ],
      "logsBloom": "0x00000000000000000000400000000000000000000000000000000000000000000000000000000000000000000000000000000000000000000000004000040000000000000000000000000000000000000000040000040000000000000000000000000000000000000000000000000000000000000000000000000000000000000000000000000000000000000000000000000000000020000000000000000000000000000000000000000000000000000000000000000000000000000000000000000000000000800002000000000000000000000000000000000000000040000000000000000000000000000000000000000000000000000000000000000000",
      "type": "0x2",
      "transactionHash": "0xb8d08914ac01621ff233f359e33cb6e004328e24c87eaa9052be80d480295ea1",
      "transactionIndex": "0x5c",
      "blockHash": "0xfb7db163122a867f33107fa841787800d8192e1aa9f8cc4d81a4efd41d9102e1",
      "blockNumber": "0x7ab554",
      "gasUsed": "0x1eaef",
      "effectiveGasPrice": "0x5d1e6c6c",
      "from": "0x63b52eff9fbcf7e32e27980e5e9e0b97f9637310",
      "to": "0x3633d60cf44a0c36878b4cc6a2645a799f8ba8b4",
      "contractAddress": null
    },
    {
      "status": "0x1",
      "cumulativeGasUsed": "0x9cfb1f",
      "logs": [
        {
          "address": "0x1c7d4b196cb0c7b01d743fbc6116a902379c7238",
          "topics": [
            "0x8c5be1e5ebec7d5bd14f71427d1e84f3dd0314c0f7b2291e5b200ac8c7c3b925",
            "0x00000000000000000000000063b52eff9fbcf7e32e27980e5e9e0b97f9637310",
            "0x0000000000000000000000003633d60cf44a0c36878b4cc6a2645a799f8ba8b4"
          ],
          "data": "0x00000000000000000000000000000000000000000000000000000000000f4240",
          "blockHash": "0xfb7db163122a867f33107fa841787800d8192e1aa9f8cc4d81a4efd41d9102e1",
          "blockNumber": "0x7ab554",
          "transactionHash": "0xf2b2c4d4cc42d6e1aefd066527299ac65d6f4c5b538aa97170dff8a2e1a85ff4",
          "transactionIndex": "0x5d",
          "logIndex": "0xac",
          "removed": false
        }
      ],
      "logsBloom": "0x00000000000000000000000000000100000000000000000000000000000200000000000000000000000000000000000000000000000000000000000000200000000000000000000000000000000000000000000000000000000000000000100000000000000000000000000000000000000000000000000000000000040000000000000000100000000000000000000000000000000000000000000000000000020000000000000000000000000000000000000000000000000000000000000000000000000000000000000000000000000200000000000020000000000000000010000000000000008010000000000000000000000000000000000000000000",
      "type": "0x2",
      "transactionHash": "0xf2b2c4d4cc42d6e1aefd066527299ac65d6f4c5b538aa97170dff8a2e1a85ff4",
      "transactionIndex": "0x5d",
      "blockHash": "0xfb7db163122a867f33107fa841787800d8192e1aa9f8cc4d81a4efd41d9102e1",
      "blockNumber": "0x7ab554",
      "gasUsed": "0xd88d",
      "effectiveGasPrice": "0x5d1e6c6c",
      "from": "0x63b52eff9fbcf7e32e27980e5e9e0b97f9637310",
      "to": "0x1c7d4b196cb0c7b01d743fbc6116a902379c7238",
      "contractAddress": null
    },
    {
      "status": "0x1",
      "cumulativeGasUsed": "0x9f8b27",
      "logs": [
        {
          "address": "0x1c7d4b196cb0c7b01d743fbc6116a902379c7238",
          "topics": [
            "0xddf252ad1be2c89b69c2b068fc378daa952ba7f163c4a11628f55a4df523b3ef",
            "0x00000000000000000000000063b52eff9fbcf7e32e27980e5e9e0b97f9637310",
            "0x0000000000000000000000003633d60cf44a0c36878b4cc6a2645a799f8ba8b4"
          ],
          "data": "0x00000000000000000000000000000000000000000000000000000000000f4240",
          "blockHash": "0xfb7db163122a867f33107fa841787800d8192e1aa9f8cc4d81a4efd41d9102e1",
          "blockNumber": "0x7ab554",
          "transactionHash": "0xc5eb9cd788fc9030c64378a746ab393c241fc918f3f18bbad8bd08bd72b893c7",
          "transactionIndex": "0x5e",
          "logIndex": "0xad",
          "removed": false
        },
        {
          "address": "0x3633d60cf44a0c36878b4cc6a2645a799f8ba8b4",
          "topics": [
            "0xd29675c17a25076ca2247b79c732baf7e2fd471ed38067be604fd2608e228b53",
            "0x0000000000000000000000000000000000000000000000000000000000000001",
            "0x00000000000000000000000063b52eff9fbcf7e32e27980e5e9e0b97f9637310"
          ],
          "data": "0x00000000000000000000000000000000000000000000000000000000000f4240",
          "blockHash": "0xfb7db163122a867f33107fa841787800d8192e1aa9f8cc4d81a4efd41d9102e1",
          "blockNumber": "0x7ab554",
          "transactionHash": "0xc5eb9cd788fc9030c64378a746ab393c241fc918f3f18bbad8bd08bd72b893c7",
          "transactionIndex": "0x5e",
          "logIndex": "0xae",
          "removed": false
        }
      ],
      "logsBloom": "0x00000000000000000000400000000100000000000000000000000000000200000000000000000000000000000000000000000000000000000000004000040000000000000000000000000008000000000000000000040000000000000000100000000000000000000000000000000000000000000000000000000010040000000000000000100000000000000000000000000400000020000000000800000000000000000000000000000000000000000000000000000000000000000000000000000002000000000000000000000000000200000000000020000000000040000000000000000000048010000000000000000000000000000000000000000000",
      "type": "0x2",
      "transactionHash": "0xc5eb9cd788fc9030c64378a746ab393c241fc918f3f18bbad8bd08bd72b893c7",
      "transactionIndex": "0x5e",
      "blockHash": "0xfb7db163122a867f33107fa841787800d8192e1aa9f8cc4d81a4efd41d9102e1",
      "blockNumber": "0x7ab554",
      "gasUsed": "0x29008",
      "effectiveGasPrice": "0x5d1e6c6c",
      "from": "0x63b52eff9fbcf7e32e27980e5e9e0b97f9637310",
      "to": "0x3633d60cf44a0c36878b4cc6a2645a799f8ba8b4",
      "contractAddress": null
    }
  ],
  "libraries": [],
  "pending": [],
  "returns": {},
  "timestamp": 1743680568,
  "chain": 11155111,
  "commit": "d0f6370"
}